2016-07-01 14:54:56 block.nTime = 1467379015 
2016-07-01 14:54:56 block.nNonce = 465030 
2016-07-01 14:54:56 block.GetHash = 5fb62f7c1c6b78074cb25347b3db26092353fd95b27284f2965bec1310a3b3d3
2016-07-01 14:54:56 CBlock(hash=5fb62f7c1c6b78074cb25347b3db26092353fd95b27284f2965bec1310a3b3d3, input=010000000000000000000000000000000000000000000000000000000000000000000000932db4c4f7449a3dd10a880f3cf90c5a57a55f1efdf03b5f66f683b4f771b3cc476d7657f0ff0f1e86180700, PoW=000007e272365fb623634b6aae5a7cd9e14946042c854ab5cbc88ac8d194372a, ver=1, hashPrevBlock=0000000000000000000000000000000000000000000000000000000000000000, hashMerkleRoot=ccb371f7b483f6665f3bf0fd1e5fa5575a0cf93c0f880ad13d9a44f7c4b42d93, nTime=1467379015, nBits=1e0ffff0, nNonce=465030, vtx=1)
2016-07-01 14:54:56   CTransaction(hash=ccb371f7b483f6665f3bf0fd1e5fa5575a0cf93c0f880ad13d9a44f7c4b42d93, ver=1, vin.size=1, vout.size=1, nLockTime=0)
    CTxIn(COutPoint(0000000000000000000000000000000000000000000000000000000000000000, 4294967295), coinbase 04ffff001d010448574c43206973206120736f667477617265206e4c6f636b54696d652073797374656d207363726970745075624b657920627920574c43204e616b616d6f746f20696e20323030382e)
    CTxOut(nValue=0.05000000, scriptPubKey=040184710fa689ad5023690c80f3a4)
  vMerkleTree: ccb371f7b483f6665f3bf0fd1e5fa5575a0cf93c0f880ad13d9a44f7c4b42d93 